S01600005457495F41706C69636174696F6E2E73726563B7
S11300000C9450000C9462000C9462000C946200F6
S11300100C9462000C9462000C9462000C946200D4
S11300200C9462000C9462000C9462000C946200C4
S11300300C9462000C9462000C9462000C946200B4
S11300400C9462000C9462000C9462000C946200A4
S11300500C9462000C9462000C9462000C94620094
S11300600C9464000C946200A700B100BB00C500AE
S1130070CF00D900E300ED00F70001010B011501E9
S11300801F01290133013D01470151015B01650154
S11300906F01790183018D019701A101AB01B501C4
S11300A011241FBECFEFD8E0DEBFCDBF21E0A0E01A
S11300B0B1E001C01D92A330B207E1F70E94BF0175
S11300C00C9401020C9400001F920F920FB60F9231
S11300D011248F9381E0809301018091B900887F7E
S11300E0809302018F910F900FBE0F901F9018956F
S11300F080E284B9089580FF0BC088E48093B8003F
S1130100E9EBF0E080818C7F808385EA8093BC00FA
S1130110089580FF06C088E78093BB0085E880933C
S1130120BC00089580FF05C06093BB0085E8809300
S1130130BC000895E09100018E2F90E08C31910570
S113014008F016C1FC01EC5CFF4F0C94FB0160E06D
S113015081E00E949200809100018F5F80930001F2
S113016008956EEA81E00E949200809100018F5F01
S113017080930001089565ED81E00E9492008091D2
S113018000018F5F80930001089560E881E00E9480
S11301909200809100018F5F80930001089568EAC6
S11301A081E00E949200809100018F5F80930001A2
S11301B008956FE381E00E949200809100018F5FB7
S11301C080930001089563ED81E00E949200809184
S11301D000018F5F80930001089560E081E00E9438
S11301E09200809100018F5F80930001089560E484
S11301F081E00E949200809100018F5F8093000152
S113020008956DE881E00E949200809100018F5F63
S113021080930001089564E181E00E94920080913E
S113022000018F5F80930001089561EA81E00E94DC
S11302309200809100018F5F80930001089568EC23
S113024081E00E949200809100018F5F8093000101
S113025008956AED81E00E949200809100018F5F11
S113026080930001089562E181E00E9492008091F0
S113027000018F5F80930001089561E881E00E948E
S11302809200809100018F5F8093000108956FE9CF
S113029081E00E949200809100018F5F80930001B1
S11302A0089560E281E00E949200809100018F5FD6
S11302B080930001089562E081E00E9492008091A1
S11302C000018F5F8093000108956EE281E00E9437
S11302D09200809100018F5F80930001089569ED81
S11302E081E00E949200809100018F5F8093000161
S11302F0089562E281E00E949200809100018F5F84
S11303008093000108956BED81E00E94920080913A
S113031000018F5F80930001089560E481E00E94F2
S11303209200809100018F5F80930001089565EA37
S113033081E00E949200809100018F5F8093000110
S1130340089567EA81E00E949200809100018F5F26
S11303508093000108956FEA81E00E9492008091E9
S113036000018F5F80930001089580EF8093000166
S1130370089580FF03C084E98093BC000895F89435
S11303800E94780078942FEF83ED90E32150804011
S11303909040E1F700C0000081E08093010180916A
S11303A001018823E1F31092010180910201883058
S11303B079F018F4882331F0F2CF883179F088325B
S11303C069F0EDCF81E0809302010E947B00E7CFCA
S11303D081E0809302010E948900E1CF81E0809353
S11303E002010E949A0080910001803FC1F681E0E1
S11303F00E94B901D4CFEE0FFF1F0590F491E02DB8
S10904000994F894FFCFFB
S9030000FC
