:100000000C9450000C9462000C9462000C946200FA
:100010000C9462000C9462000C9462000C946200D8
:100020000C9462000C9462000C9462000C946200C8
:100030000C9462000C9462000C9462000C946200B8
:100040000C9462000C9462000C9462000C946200A8
:100050000C9462000C9462000C9462000C94620098
:100060000C9464000C946200A700B100BB00C500B2
:10007000CF00D900E300ED00F70001010B011501ED
:100080001F01290133013D01470151015B01650158
:100090006F01790183018D019701A101AB01B501C8
:1000A00011241FBECFEFD8E0DEBFCDBF21E0A0E01E
:1000B000B1E001C01D92A630B207E1F70E946102D3
:1000C0000C9496020C9400001F920F920FB60F92A0
:1000D00011248F9381E0809304018091B900887F7F
:1000E000809305018F910F900FBE0F901F90189570
:1000F00080E284B9089580FF0BC088E48093B80043
:10010000E9EBF0E080818C7F808385EA8093BC00FE
:10011000089580FF06C088E78093BB0085E8809340
:10012000BC00089580FF05C06093BB0085E8809304
:10013000BC000895E09103018E2F90E08C31910571
:1001400008F016C1FC01EC5CFF4F0C94900260E0DB
:1001500081E00E949200809103018F5F80930301F0
:1001600008956EEA81E00E949200809103018F5F02
:1001700080930301089565ED81E00E9492008091D3
:1001800003018F5F80930301089560E881E00E947E
:100190009200809103018F5F80930301089568EAC4
:1001A00081E00E949200809103018F5F80930301A0
:1001B00008956FE381E00E949200809103018F5FB8
:1001C00080930301089563ED81E00E949200809185
:1001D00003018F5F80930301089560E081E00E9436
:1001E0009200809103018F5F80930301089560E482
:1001F00081E00E949200809103018F5F8093030150
:1002000008956DE881E00E949200809103018F5F64
:1002100080930301089564E181E00E94920080913F
:1002200003018F5F80930301089561EA81E00E94DA
:100230009200809103018F5F80930301089568EC21
:1002400081E00E949200809103018F5F80930301FF
:1002500008956AED81E00E949200809103018F5F12
:1002600080930301089562E181E00E9492008091F1
:1002700003018F5F80930301089561E881E00E948C
:100280009200809103018F5F8093030108956FE9CD
:1002900081E00E949200809103018F5F80930301AF
:1002A000089560E281E00E949200809103018F5FD7
:1002B00080930301089562E081E00E9492008091A2
:1002C00003018F5F8093030108956EE281E00E9435
:1002D0009200809103018F5F80930301089569ED7F
:1002E00081E00E949200809103018F5F809303015F
:1002F000089562E281E00E949200809103018F5F85
:100300008093030108956BED81E00E94920080913B
:1003100003018F5F80930301089560E481E00E94F0
:100320009200809103018F5F80930301089564EA36
:1003300081E00E949200809103018F5F809303010E
:10034000089567EA81E00E949200809103018F5F27
:100350008093030108956FEA81E00E9492008091EA
:1003600003018F5F80930301089580EF8093030161
:10037000089580FF03C084E98093BC0008958091B4
:100380000501883079F018F4882331F00895883118
:1003900079F0883269F0089581E0809305010E9428
:1003A0007B00089581E0809305010E9489000895F3
:1003B00081E0809305010E949A0080910301803FB3
:1003C00079F481E00E94B901109203018091020149
:1003D0008F5F8093020181E08093040110920501F8
:1003E0000895CF93C82F80910501883079F018F4D3
:1003F000882331F016C0883179F0883269F011C055
:1004000081E0809305010E947B000BC081E0809316
:1004100005010E94890005C081E080930501809359
:10042000000180910001882309F449C01092000165
:1004300080910301813081F028F08230B9F083305F
:10044000F9F03DC060E881E00E94920080910301D4
:100450008F5F8093030133C06C2F81E00E94920074
:10046000809103018F5F8093030129C060E481E0E4
:100470000E949200809103018F5F809303011FC04F
:1004800080910101882354F060E081E00E94920095
:10049000809101018F5F8093010111C010920101D1
:1004A00081E00E94B90181E0809304011092030170
:1004B000809102018F5F8093020110920501CF911C
:1004C0000895F8940E94780078942FEF83ED90E3DC
:1004D000215080409040E1F700C0000081E080930F
:1004E0000401809104018823E1F3109204018091BA
:1004F0000201813049F028F0823051F0833061F000
:10050000F0CF0E94BF01EDCF84EB0E94F101E9CF53
:1005100087EB0E94F101E5CF80EB0E94F101E1CF72
:10052000EE0FFF1F0590F491E02D0994F894FFCF92
:00000001FF
