S01600005457495F41706C69636174696F6E2E73726563B7
S11300000C94C4010C94E1010C94E1010C94E10101
S11300100C94E1010C94E1010C94E1010C94E101D4
S11300200C94E1010C94E1010C94E1010C9416058B
S11300300C94E1010C94E1010C94E1010C94E101B4
S11300400C94E1010C94E1010C94E1010C94E101A4
S11300500C94E1010C94E1010C94E1010C94E10194
S11300600C94DC040C94E1011E02280232023C02CE
S1130070460250025A0264026E02780282028C0224
S11300809602A002AA02B402BE02C802D202DC0294
S1130090E602F002FA0204030E03180322032C03FF
S11300A0790486049304A004AC04B804C404D00402
S11300B000000000000000007E8195B1B195817EB2
S11300C07EFFEBCFCFEBFF7E0E1F3F7E3F1F0E0068
S11300D0081C3E7F3E1C080018BAFFFFFFBA180038
S11300E010B8FCFFFCB810000000183C3C180000DD
S11300F0FFFFE7C3C3E7FFFF003C664242663C00E4
S1130100FFC399BDBD99C3FF70F88888FD7F070FB1
S1130110004E5FF1F15F4E00C0E0FF7F0505070769
S1130120C0FF7F0505657F3F995A3CE7E73C5A9934
S11301307F3E3E1C1C08080008081C1C3E3E7F0035
S1130140002466FFFF662400005F5F00005F5F001D
S1130150060F097F7F017F7F40DABFA5FD5B0200A8
S113016000707070707070008094B6FFFFB6948059
S11301700004067F7F0604000010307F7F301000EB
S11301800808082A3E1C0800081C3E2A0808080023
S11301900000C0C0C0FE0000081C3E08083E1C0849
S11301A030383C3E3E3C3830060E1E3E3E1E0E06A7
S11301B0000000000000000000065F5F0600000071
S11301C00007070007070000147F7F147F7F1400D7
S11301D0242E6B6B3A120000466630180C666200DF
S11301E0307A4F5D377A48000407030000000000AE
S11301F0001C3E63410000000041633E1C000000FF
S1130200082A3E1C1C3E2A0808083E3E0808000036
S11302100080E060000000000808080808080000EA
S113022000006060000000006030180C060301004C
S11302303E7F71594D7F3E0000027F7F0000000029
S1130240627359494F460000226349497F360000D2
S1130250181C16137F7F1000276745457D39000061
S11302603C7E4B4979300000010171790F07000091
S1130270367F49497F360000064F49693F1E00001A
S113028000006666000000000080E66600000000D2
S1130290081C366341000000242424242424000084
S11302A0004163361C080000020351590F06000088
S11302B03E7F415D5D1F1E00007C7E13137E7C002B
S11302C0007F7F49497F36001C3E63414163220021
S11302D0007F7F41633E1C00007F7F49494141000C
S11302E0007F7F09090101001C3E634151737200C4
S11302F0007F7F08087F7F000000007F7F000000F0
S113030000307040407F3F00007F7F081C7763000F
S1130310007F7F40404040007F7F0E1C0E7F7F00A7
S11303207F7F060C187F7F00003E7F41417F3E00A7
S1130330007F7F09090F0600001E3F21717F5E00C8
S1130340007F7F09197F660000266F4D59733200C4
S11303500001017F7F010100003F7F40407F7F005B
S1130360001F3F60603F1F007F7F3018307F7F0099
S11303700063771C1C77630000070F78780F070071
S1130380416171594D47430011241FBECFEFD8E09E
S1130390DEBFCDBF11E0A0E0B1E0ECEEFAE002C0B8
S11303A005900D92AC30B107D9F721E0ACE0B1E093
S11303B001C01D92A631B207E1F70E942E050C94EC
S11303C074050C9400008091B900887F8093130118
S11303D00895813069F488E48093B800E9EBF0E093
S11303E080818C7F808385EA8093BC0081E00895BE
S11303F080E00895813041F488E78093BB0085E86C
S11304008093BC0081E0089580E00895813039F440
S11304106093BB0085E88093BC0081E0089580E090
S11304200895E09112018E2F90E08C31910508F02F
S113043016C1FC01EC5CFF4F0C946E0560E081E09A
S11304400E940602809112018F5F80931201089529
S11304506EEA81E00E940602809112018F5F809310
S11304601201089565ED81E00E9406028091120157
S11304708F5F80931201089560E881E00E94060274
S1130480809112018F5F80931201089568EA81E0E0
S11304900E940602809112018F5F809312010895D9
S11304A06FE381E00E940602809112018F5F8093C6
S11304B01201089563ED81E00E9406028091120109
S11304C08F5F80931201089560E081E00E9406022C
S11304D0809112018F5F80931201089560E481E09E
S11304E00E940602809112018F5F80931201089589
S11304F06DE881E00E940602809112018F5F809373
S11305001201089564E181E00E94060280911201C3
S11305108F5F80931201089561EA81E00E940602D0
S1130520809112018F5F80931201089568EC81E03D
S11305300E940602809112018F5F80931201089538
S11305406AED81E00E940602809112018F5F809320
S11305501201089562E181E00E9406028091120175
S11305608F5F80931201089561E881E00E94060282
S1130570809112018F5F8093120108956FE981E0E9
S11305800E940602809112018F5F809312010895E8
S113059060E281E00E940602809112018F5F8093E5
S11305A01201089562E081E00E9406028091120126
S11305B08F5F8093120108956EE281E00E9406022B
S11305C0809112018F5F80931201089569ED81E09B
S11305D00E940602809112018F5F80931201089598
S11305E062E281E00E940602809112018F5F809393
S11305F0120108956BED81E00E94060280911201C0
S11306008F5F80931201089560E481E00E940602E6
S1130610809112018F5F80931201089564EA81E052
S11306200E940602809112018F5F80931201089547
S113063067EA81E00E940602809112018F5F809335
S1130640120108956FEA81E00E940602809112016E
S11306508F5F80931201089580EF809312010895B3
S1130660813029F484E98093BC0081E0089580E01E
S113067008951F93CF93DF93182FD62F80911301E2
S1130680883079F018F4882331F016C0883179F075
S1130690883269F011C081E0809313010E94E9015E
S11306A00BC081E0809313010E94FA0105C081E030
S11306B08093130180931101C0911101CC2309F49B
S11306C061C010921101C0911201C13081F028F073
S11306D0C230C1F0C33009F152C060E881E00E9429
S11306E00602809112018F5F809312014BC0612F2B
S11306F081E00E940602809112018F5F80931201B3
S1130700C0E040C060E481E00E94060280911201D2
S11307108F5F80931201C0E035C0E0911001ED17A6
S113072028F5F0E0EF5FFE4FE081F0E0EE0FFF1FF1
S1130730EE0FFF1FEE0FFF1F80910F01E80FF11D59
S1130740E055FF4F649181E00E94060280910F0101
S11307508F5F80930F018830A1F4809110018F5F27
S11307608093100110920F01C0E00CC0109212018E
S113077081E00E94300310921301C1E003C0C0E085
S113078001C0C0E08C2FDF91CF911F910895CF93CA
S1130790C0911301C83079F018F4CC2331F024C08F
S11307A0C83181F0C83271F01FC081E08093130119
S11307B00E94E9011CC081E0809313010E94FA01A8
S11307C0C0E015C081E0809313010E941102809162
S11307D01201803F59F481E00E943003109212010B
S11307E010921301C1E003C0C0E001C0C0E08C2F2F
S11307F0CF910895CF93DF93D82F80911301883040
S113080079F018F4882331F016C0883179F08832F1
S113081069F011C081E0809313010E94E9010BC0CB
S113082081E0809313010E94FA0105C081E0809366
S1130830130180930E01C0910E01CC2309F447C02B
S113084010920E01C0911201C13081F028F0C23023
S1130850C1F0C33009F13AC060E881E00E940602A9
S1130860809112018F5F8093120131C06D2F81E05E
S11308700E940602809112018F5F80931201C0E0F2
S113088026C060E481E00E940602809112018F5F1D
S113089080931201C0E01BC080910D0188235CF09D
S11308A060E081E00E94060280910D018F5F8093D9
S11308B00D01C0E00CC010920D0181E00E943003D4
S11308C01092120110921301C1E001C0C0E08C2FFC
S11308D0DF91CF910895CF93C0910C018C2F90E0BC
S11308E08830910508F065C0FC01E05BFF4F0C9473
S11308F06E0580EB0E94FA03882309F45BC08091A3
S11309000C018F5F80930C018C2F54C081EB0E94EB
S1130910FA03882309F44EC080910C018F5F809301
S11309200C0180E047C082EB0E94FA03882309F49B
S113093041C080910C018F5F80930C0180E03AC02C
S113094083EB0E94FA038823A9F180910C018F5F45
S113095080930C0180E02EC084EB0E94FA0388236C
S113096049F180910C018F5F80930C0180E022C0DB
S113097085EB0E94FA038823E9F080910C018F5FD4
S113098080930C0180E016C086EB0E94FA03882352
S113099089F080910C018F5F80930C0180E00AC084
S11309A087EB0E94FA03882329F010920C0181E05E
S11309B001C080E0CF9108951F920F920FB60F925D
S11309C011242F933F934F935F936F937F938F9350
S11309D09F93AF93BF93EF93FF9381E080931501AF
S11309E00E94E301FF91EF91BF91AF919F918F918D
S11309F07F916F915F914F913F912F910F900FBE17
S1130A000F901F90189580E284B908951092800089
S1130A108CE08093810086B386BB82E080936F0074
S1130A208093890081E78093880008951F920F9234
S1130A300FB60F9211248F938091000181508093FF
S1130A40000180910001811103C08AE080930001BC
S1130A508F910F900FBE0F901F901895F8940E94DD
S1130A6003050E94060578942FEF83ED90E321504F
S1130A7080409040E1F700C0000081E080931501C0
S1130A80809115018823E1F31092150180911401DE
S1130A90813071F018F08230A9F0F2CF0E94C703C0
S1130AA0882371F3809114018F5F80931401E8CF40
S1130AB00E946B04882321F3809114018F5F80933B
S1130AC01401DECF6AE080EB0E9439038823C1F26F
S1130AD0809114018F5F80931401D2CFEE0FFF1F1A
S10F0AE00590F491E02D0994F894FFCFE8
S10F0AEC0A484F4C41204D554E444F0029
S9030000FC
