:100000000C94C4010C94E1010C94E1010C94E10105
:100010000C94E1010C94E1010C94E1010C94E101D8
:100020000C94E1010C94E1010C94E1010C94E101C8
:100030000C94E1010C94E1010C94E1010C94E101B8
:100040000C94E1010C94E1010C94E1010C94E101A8
:100050000C94E1010C94E1010C94E1010C94E10198
:100060000C94E3010C94E101260230023A024402AE
:100070004E02580262026C02760280028A029402E8
:100080009E02A802B202BC02C602D002DA02E40258
:10009000EE02F80202030C03160320032A033403C2
:1000A0007B04870493049F04AA04B504C004CB0412
:1000B00000000000000000007E8195B1B195817EB6
:1000C0007EFFEBCFCFEBFF7E0E1F3F7E3F1F0E006C
:1000D000081C3E7F3E1C080018BAFFFFFFBA18003C
:1000E00010B8FCFFFCB810000000183C3C180000E1
:1000F000FFFFE7C3C3E7FFFF003C664242663C00E8
:10010000FFC399BDBD99C3FF70F88888FD7F070FB5
:10011000004E5FF1F15F4E00C0E0FF7F050507076D
:10012000C0FF7F0505657F3F995A3CE7E73C5A9938
:100130007F3E3E1C1C08080008081C1C3E3E7F0039
:10014000002466FFFF662400005F5F00005F5F0021
:10015000060F097F7F017F7F40DABFA5FD5B0200AC
:1001600000707070707070008094B6FFFFB694805D
:100170000004067F7F0604000010307F7F301000EF
:100180000808082A3E1C0800081C3E2A0808080027
:100190000000C0C0C0FE0000081C3E08083E1C084D
:1001A00030383C3E3E3C3830060E1E3E3E1E0E06AB
:1001B000000000000000000000065F5F0600000075
:1001C0000007070007070000147F7F147F7F1400DB
:1001D000242E6B6B3A120000466630180C666200E3
:1001E000307A4F5D377A48000407030000000000B2
:1001F000001C3E63410000000041633E1C00000003
:10020000082A3E1C1C3E2A0808083E3E080800003A
:100210000080E060000000000808080808080000EE
:1002200000006060000000006030180C0603010050
:100230003E7F71594D7F3E0000027F7F000000002D
:10024000627359494F460000226349497F360000D6
:10025000181C16137F7F1000276745457D39000065
:100260003C7E4B4979300000010171790F07000095
:10027000367F49497F360000064F49693F1E00001E
:1002800000006666000000000080E66600000000D6
:10029000081C366341000000242424242424000088
:1002A000004163361C080000020351590F0600008C
:1002B0003E7F415D5D1F1E00007C7E13137E7C002F
:1002C000007F7F49497F36001C3E63414163220025
:1002D000007F7F41633E1C00007F7F494941410010
:1002E000007F7F09090101001C3E634151737200C8
:1002F000007F7F08087F7F000000007F7F000000F4
:1003000000307040407F3F00007F7F081C77630013
:10031000007F7F40404040007F7F0E1C0E7F7F00AB
:100320007F7F060C187F7F00003E7F41417F3E00AB
:10033000007F7F09090F0600001E3F21717F5E00CC
:10034000007F7F09197F660000266F4D59733200C8
:100350000001017F7F010100003F7F40407F7F005F
:10036000001F3F60603F1F007F7F3018307F7F009D
:100370000063771C1C77630000070F78780F070075
:10038000416171594D47430011241FBECFEFD8E0A2
:10039000DEBFCDBF11E0A0E0B1E0E8E1FAE002C0CD
:1003A00005900D92AA30B107D9F721E0AAE0B1E09B
:1003B00001C01D92A431B207E1F70E94DB040C9446
:1003C0000A050C9400001F920F920FB60F92112491
:1003D0008F9381E0809312018091B900887F809390
:1003E00013018F910F900FBE0F901F90189580E210
:1003F00084B90895813059F488E48093B800E9EB1A
:10040000F0E080818C7F808385EA8093BC00089532
:10041000813031F488E78093BB0085E88093BC008D
:100420000895813029F46093BB0085E88093BC0077
:100430000895E09111018E2F90E08C31910508F024
:1004400016C1FC01EC5CFF4F0C94040560E081E0F8
:100450000E941102809111018F5F80931101089514
:100460006EEA81E00E941102809111018F5F8093FA
:100470001101089565ED81E00E9411028091110142
:100480008F5F80931101089560E881E00E9411025E
:10049000809111018F5F80931101089568EA81E0D6
:1004A0000E941102809111018F5F809311010895C4
:1004B0006FE381E00E941102809111018F5F8093B0
:1004C0001101089563ED81E00E94110280911101F4
:1004D0008F5F80931101089560E081E00E94110216
:1004E000809111018F5F80931101089560E481E094
:1004F0000E941102809111018F5F80931101089574
:100500006DE881E00E941102809111018F5F80935C
:100510001101089564E181E00E94110280911101AE
:100520008F5F80931101089561EA81E00E941102BA
:10053000809111018F5F80931101089568EC81E033
:100540000E941102809111018F5F80931101089523
:100550006AED81E00E941102809111018F5F80930A
:100560001101089562E181E00E9411028091110160
:100570008F5F80931101089561E881E00E9411026C
:10058000809111018F5F8093110108956FE981E0DF
:100590000E941102809111018F5F809311010895D3
:1005A00060E281E00E941102809111018F5F8093CF
:1005B0001101089562E081E00E9411028091110111
:1005C0008F5F8093110108956EE281E00E94110215
:1005D000809111018F5F80931101089569ED81E091
:1005E0000E941102809111018F5F80931101089583
:1005F00062E281E00E941102809111018F5F80937D
:10060000110108956BED81E00E94110280911101AA
:100610008F5F80931101089560E481E00E941102D0
:10062000809111018F5F80931101089564EA81E048
:100630000E941102809111018F5F80931101089532
:1006400067EA81E00E941102809111018F5F80931F
:10065000110108956FEA81E00E9411028091110159
:100660008F5F80931101089580EF809311010895A9
:10067000813019F484E98093BC000895CF93DF930F
:10068000D82FC62F80911301883079F018F4882371
:1006900031F016C0883179F0883269F011C081E0FC
:1006A000809313010E94FA010BC081E08093130133
:1006B0000E94080205C081E08093130180930F011E
:1006C00080910F01882309F460C010920F0180917E
:1006D0001101813081F028F08230B9F08330F9F0D7
:1006E00054C060E881E00E941102809111018F5F87
:1006F000809311014AC06D2F81E00E941102809108
:1007000011018F5F8093110140C060E481E00E947D
:100710001102809111018F5F8093110136C0E09129
:100720000E01EC1720F5F0E0E050FF4FE081F0E023
:10073000EE0FFF1FEE0FFF1FEE0FFF1F80910D0149
:10074000E80FF11DE055FF4F649181E00E94110216
:1007500080910D018F5F80930D018830B1F48091FD
:100760000E018F5F80930E0110920D010EC010924A
:10077000110181E0809312010E943803109213014D
:10078000809110018F5F80931001DF91CF910895C8
:1007900080911301883079F018F4882331F008959E
:1007A000883179F0883269F0089581E080931301EF
:1007B0000E94FA01089581E0809313010E940802CB
:1007C000089581E0809313010E9419028091110124
:1007D000803F79F481E00E943803109211018091EA
:1007E00010018F5F8093100181E0809312011092BD
:1007F00013010895CF93DF93D82F80911301883090
:1008000079F018F4882331F016C0883179F08832F5
:1008100069F011C081E0809313010E94FA010BC0BE
:1008200081E0809313010E94080205C081E080935B
:10083000130180930C01C0910C01CC2309F44AC030
:1008400010920C01C0911101C13081F028F0C2302A
:10085000C1F0C33009F13DC060E881E00E9411029F
:10086000809111018F5F8093110134C06D2F81E061
:100870000E941102809111018F5F80931101C0E0ED
:1008800029C060E481E00E941102809111018F5F14
:1008900080931101C0E01EC080910B0188235CF0A1
:1008A00060E081E00E94110280910B018F5F8093D4
:1008B0000B01C0E00FC010920B0181E00E943803D1
:1008C000109211011092130181E080931201C1E096
:1008D00001C0C0E08C2FDF91CF910895E0910A0113
:1008E0008E2F90E08830910508F064C0FC01E05B39
:1008F000FF4F0C94040580EB0E94FA03882309F44F
:1009000059C080910A018F5F80930A01089581EB9D
:100910000E94FA03882309F44DC080910A018F5F79
:1009200080930A01089582EB0E94FA03882309F458
:1009300041C080910A018F5F80930A01089583EB83
:100940000E94FA038823B1F180910A018F5F80939E
:100950000A01089584EB0E94FA03882359F18091DB
:100960000A018F5F80930A01089585EB0E94FA03C4
:10097000882301F180910A018F5F80930A01089515
:1009800086EB0E94FA038823A9F080910A018F5F09
:1009900080930A01089587EB0E94FA03882351F09F
:1009A000809110018F5F8093100110920A0181E005
:1009B000809312010895F8940E94F70178942FEF24
:1009C00083ED90E3215080409040E1F700C00000AB
:1009D00081E080931201809112018823E1F310924B
:1009E000120180911001813039F018F0823039F015
:1009F000F2CF0E94C803EFCF0E946E04ECCF6AE0F2
:100A000080EB0E943E03E7CFEE0FFF1F0590F491AD
:080A1000E02D0994F894FFCFDA
:0A0A1800484F4C41204D554E444F0D
:00000001FF
