S01600005457495F41706C69636174696F6E2E73726563B7
S11300000C9434000C9446000C9446000C94460066
S11300100C9446000C9446000C9446000C94460044
S11300200C9446000C9446000C9446000C94460034
S11300300C9446000C9446000C9446000C94460024
S11300400C9446000C9446000C9446000C94460014
S11300500C9446000C9446000C9446000C94460004
S11300600C9446000C94460011241FBECFEFD8E038
S1130070DEBFCDBF21E0A0E0B1E001C01D92A13000
S1130080B207E1F70E946E010C9497010C940000F2
S113009080E284B98AB18B7F8AB98BB18B7F8BB9AB
S11300A0089588E48093B800E9EBF0E080818E7FC6
S11300B0808380818D7F808384EA8093BC008091DB
S11300C0BC008823E4F78091B90088708093000114
S11300D085B1806285B9089588E78093BB0084E880
S11300E08093BC008091BC008823E4F78091B90020
S11300F088718093000108958EEA8093BB0084E8A0
S11301008093BC008091BC008823E4F785ED809344
S1130110BB0084E88093BC008091BC008823E4F792
S113012085B1806285B980E88093BB0084E88093C0
S1130130BC008091BC008823E4F788EA8093BB006C
S113014084E88093BC008091BC008823E4F78FE3AB
S11301508093BB0084E88093BC008091BC0088231A
S1130160E4F783ED8093BB0084E88093BC00809126
S1130170BC008823E4F71092BB0084E88093BC00A1
S11301808091BC008823E4F780E48093BB0084E87A
S11301908093BC008091BC008823E4F78DE88093B1
S11301A0BB0084E88093BC008091BC008823E4F702
S11301B084E18093BB0084E88093BC008091BC0000
S11301C08823E4F781EA8093BB0084E88093BC0031
S11301D08091BC008823E4F788EC8093BB0084E81A
S11301E08093BC008091BC008823E4F78AED80935F
S11301F0BB0084E88093BC008091BC008823E4F7B2
S113020082E18093BB0084E88093BC008091BC00B1
S11302108823E4F781E88093BB0084E88093BC00E2
S11302208091BC008823E4F78FE98093BB0084E8C5
S11302308093BC008091BC008823E4F789ED80930F
S1130240BB0084E88093BC008091BC008823E4F761
S113025082E28093BB0084E88093BC008091BC0060
S11302608823E4F78BED8093BB0084E88093BC0083
S11302708091BC008823E4F780E48093BB0084E889
S11302808093BC008091BC008823E4F785EA8093C6
S1130290BB0084E88093BC008091BC008823E4F711
S11302A087EA8093BB0084E88093BC008091BC0003
S11302B08823E4F78FEA8093BB0084E88093BC0032
S11302C08091BC008823E4F78091B9008872809300
S11302D00001089584E98093BC000895F8940E9475
S11302E0480078942FEF83ED90E3215080409040B4
S11302F0E1F700C0000080910001883061F018F43B
S1130300882331F0F8CF883149F0883251F0F3CFA7
S11303100E945100F0CF0E946C00EDCF0E947C003F
S1130320EACF0E946A0181E080930001E4CFF8944F
S1050330FFCFF9
S9030000FC
