S01600005457495F41706C69636174696F6E2E73726563B7
S11300000C9458000C946A000C946A000C946A00D6
S11300100C946A000C946A000C946A000C946A00B4
S11300200C946A000C946A000C946A000C946A00A4
S11300300C946A000C946A000C946A000C946A0094
S11300400C946A000C946A000C946A000C946A0084
S11300500C946A000C946A000C946A000C946A0074
S11300600C946C000C946A00AF00B900C300CD007E
S1130070D700E100EB00F500FF00090113011D01A9
S1130080270131013B0145014F01590163016D0114
S1130090770181018B0195019F01A901B301BD0184
S11300A07A02860292029E02A902B402BF02CA0226
S11300B011241FBECFEFD8E0DEBFCDBF21E0A0E00A
S11300C0B1E001C01D92A730B207E1F70E94DA0245
S11300D00C9403030C9400001F920F920FB60F921E
S11300E011248F9381E0809305018091B900887F6A
S11300F0809306018F910F900FBE0F901F9018955B
S113010080E284B9089580FF0BC088E48093B8002E
S1130110E9EBF0E080818C7F808385EA8093BC00EA
S1130120089580FF06C088E78093BB0085E880932C
S1130130BC00089580FF05C06093BB0085E88093F0
S1130140BC000895E09104018E2F90E08C3191055C
S113015008F016C1FC01EC5CFF4F0C94FD0260E05A
S113016081E00E949A00809104018F5F80930401D2
S113017008956EEA81E00E949A00809104018F5FE5
S113018080930401089565ED81E00E949A008091B6
S113019004018F5F80930401089560E881E00E9468
S11301A09A00809104018F5F80930401089568EAA6
S11301B081E00E949A00809104018F5F8093040182
S11301C008956FE381E00E949A00809104018F5F9B
S11301D080930401089563ED81E00E949A00809168
S11301E004018F5F80930401089560E081E00E9420
S11301F09A00809104018F5F80930401089560E464
S113020081E00E949A00809104018F5F8093040131
S113021008956DE881E00E949A00809104018F5F47
S113022080930401089564E181E00E949A00809122
S113023004018F5F80930401089561EA81E00E94C4
S11302409A00809104018F5F80930401089568EC03
S113025081E00E949A00809104018F5F80930401E1
S113026008956AED81E00E949A00809104018F5FF5
S113027080930401089562E181E00E949A008091D4
S113028004018F5F80930401089561E881E00E9476
S11302909A00809104018F5F8093040108956FE9AF
S11302A081E00E949A00809104018F5F8093040191
S11302B0089560E281E00E949A00809104018F5FBA
S11302C080930401089562E081E00E949A00809185
S11302D004018F5F8093040108956EE281E00E941F
S11302E09A00809104018F5F80930401089569ED61
S11302F081E00E949A00809104018F5F8093040141
S1130300089562E281E00E949A00809104018F5F67
S11303108093040108956BED81E00E949A0080911E
S113032004018F5F80930401089560E481E00E94DA
S11303309A00809104018F5F80930401089564EA18
S113034081E00E949A00809104018F5F80930401F0
S1130350089567EA81E00E949A00809104018F5F0A
S11303608093040108956FEA81E00E949A008091CD
S113037004018F5F80930401089580EF809304014A
S1130380089580FF03C084E98093BC0008958091A0
S11303900601883079F018F4882331F00895883103
S11303A079F0883269F0089581E0809306010E9413
S11303B08300089581E0809306010E9491000895CE
S11303C081E0809306010E94A20080910401803F95
S11303D079F481E00E94C10110920401809103012B
S11303E08F5F8093030181E08093050110920601E1
S11303F00895CF93DF93D82F80910601883079F048
S113040018F4882331F016C0883179F0883269F005
S113041011C081E0809306010E9483000BC081E03B
S1130420809306010E94910005C081E0809306013B
S113043080930201C0910201CC2309F44AC01092B6
S11304400201C0910401C13081F028F0C230C1F032
S1130450C33009F13DC060E881E00E949A008091B8
S113046004018F5F8093040134C06D2F81E00E94EA
S11304709A00809104018F5F80930401C0E029C039
S113048060E481E00E949A00809104018F5F809370
S11304900401C0E01EC08091010188235CF060E08B
S11304A081E00E949A00809101018F5F8093010195
S11304B0C0E00FC01092010181E00E94C1011092BE
S11304C004011092060181E080930501C1E001C09E
S11304D0C0E08C2FDF91CF910895E09100018E2F21
S11304E090E08830910508F064C0FC01E05BFF4FA8
S11304F00C94FD0280EB0E94F901882309F459C091
S1130500809100018F5F80930001089581EB0E9428
S1130510F901882309F44DC0809100018F5F809315
S11305200001089582EB0E94F901882309F441C077
S1130530809100018F5F80930001089583EB0E94F6
S1130540F9018823B1F1809100018F5F809300014C
S1130550089584EB0E94F901882359F180910001E8
S11305608F5F80930001089585EB0E94F901882331
S113057001F1809100018F5F80930001089586EB63
S11305800E94F9018823A9F0809100018F5F809374
S11305900001089587EB0E94F901882351F08091AE
S11305A003018F5F809303011092000181E0809327
S11305B005010895F8940E94800078942FEF83ED4C
S11305C090E3215080409040E1F700C0000081E0BA
S11305D080930501809105018823E1F310920501C0
S11305E080910301882319F0813021F0F3CF0E9418
S11305F0C701F0CF0E946D02EDCFEE0FFF1F0590F3
S10D0600F491E02D0994F894FFCF63
S9030000FC
